{
  "transactions": [
    {
      "hash": "0x6ed8684fb495ab740ac0a5dd49a41de0ac137b9769ee4d8b34c581f3df62939c",
      "transactionType": "CALL",
      "contractName": null,
      "contractAddress": "0x427a32e47cd5eba1ff0f2e9d50d76da53bd8ad92",
      "function": "approve(address,uint256)",
      "arguments": [
        "0xFC693f60FE0781CCB0Fe07f681381B78a022986a",
        "1000000000000000000"
      ],
      "transaction": {
        "from": "0x9201e30965893bcc19367869734c42e9885751dd",
        "to": "0x427a32e47cd5eba1ff0f2e9d50d76da53bd8ad92",
        "gas": "0x10c3c",
        "value": "0x0",
        "input": "0x095ea7b3000000000000000000000000fc693f60fe0781ccb0fe07f681381b78a022986a0000000000000000000000000000000000000000000000000de0b6b3a7640000",
        "nonce": "0x10",
        "chainId": "0xaa36a7"
      },
      "additionalContracts": [],
      "isFixedGasLimit": false
    },
    {
      "hash": "0x4b26ac07da6a9c46e1b528425f24973ad623790230105cfb0af79cd98b84bc14",
      "transactionType": "CALL",
      "contractName": null,
      "contractAddress": "0xfc693f60fe0781ccb0fe07f681381b78a022986a",
      "function": "enterWithBone()",
      "arguments": [],
      "transaction": {
        "from": "0x9201e30965893bcc19367869734c42e9885751dd",
        "to": "0xfc693f60fe0781ccb0fe07f681381b78a022986a",
        "gas": "0x30f93",
        "value": "0x0",
        "input": "0x4d7614b1",
        "nonce": "0x11",
        "chainId": "0xaa36a7"
      },
      "additionalContracts": [],
      "isFixedGasLimit": false
    }
  ],
  "receipts": [
    {
      "status": "0x1",
      "cumulativeGasUsed": "0xa8518b",
      "logs": [
        {
          "address": "0x427a32e47cd5eba1ff0f2e9d50d76da53bd8ad92",
          "topics": [
            "0x8c5be1e5ebec7d5bd14f71427d1e84f3dd0314c0f7b2291e5b200ac8c7c3b925",
            "0x0000000000000000000000009201e30965893bcc19367869734c42e9885751dd",
            "0x000000000000000000000000fc693f60fe0781ccb0fe07f681381b78a022986a"
          ],
          "data": "0x0000000000000000000000000000000000000000000000000de0b6b3a7640000",
          "blockHash": "0xe9a52b566497e69b2f57736610696b67dfb82bd745a842ca65167b455e2c2f44",
          "blockNumber": "0x82e568",
          "blockTimestamp": "0x685332fc",
          "transactionHash": "0x6ed8684fb495ab740ac0a5dd49a41de0ac137b9769ee4d8b34c581f3df62939c",
          "transactionIndex": "0x75",
          "logIndex": "0x81",
          "removed": false
        }
      ],
      "logsBloom": "0x00000000000000000000000000000000000000000001000000000000000000000000000000000000000000000000000000000000000000000000000000200000000000000000000000000000000000000000800000000000000000000000000000000000000000000000000000000000000000000100000000000000000400000000000000000000000000000000000000000000004000000000000000000000020000000000000000000000000000000000000000000040000000000000000000000000000000000000000000000000000000000000000000000000000000000010000000000000200000000000000000000000000000000200000000000040",
      "type": "0x2",
      "transactionHash": "0x6ed8684fb495ab740ac0a5dd49a41de0ac137b9769ee4d8b34c581f3df62939c",
      "transactionIndex": "0x75",
      "blockHash": "0xe9a52b566497e69b2f57736610696b67dfb82bd745a842ca65167b455e2c2f44",
      "blockNumber": "0x82e568",
      "gasUsed": "0xb769",
      "effectiveGasPrice": "0x61aae",
      "from": "0x9201e30965893bcc19367869734c42e9885751dd",
      "to": "0x427a32e47cd5eba1ff0f2e9d50d76da53bd8ad92",
      "contractAddress": null
    },
    {
      "status": "0x1",
      "cumulativeGasUsed": "0xaa88d7",
      "logs": [
        {
          "address": "0x427a32e47cd5eba1ff0f2e9d50d76da53bd8ad92",
          "topics": [
            "0xddf252ad1be2c89b69c2b068fc378daa952ba7f163c4a11628f55a4df523b3ef",
            "0x0000000000000000000000009201e30965893bcc19367869734c42e9885751dd",
            "0x000000000000000000000000fc693f60fe0781ccb0fe07f681381b78a022986a"
          ],
          "data": "0x0000000000000000000000000000000000000000000000000de0b6b3a7640000",
          "blockHash": "0xe9a52b566497e69b2f57736610696b67dfb82bd745a842ca65167b455e2c2f44",
          "blockNumber": "0x82e568",
          "blockTimestamp": "0x685332fc",
          "transactionHash": "0x4b26ac07da6a9c46e1b528425f24973ad623790230105cfb0af79cd98b84bc14",
          "transactionIndex": "0x76",
          "logIndex": "0x82",
          "removed": false
        },
        {
          "address": "0xfc693f60fe0781ccb0fe07f681381b78a022986a",
          "topics": [
            "0xc3a308e4ceecf4d6bf4127818c3a3b603df62ea2678d13b1ae7fb9d0206243d5",
            "0x0000000000000000000000009201e30965893bcc19367869734c42e9885751dd",
            "0x000000000000000000000000000000000000000000000000de41ba4fc9d91ad9"
          ],
          "data": "0x0000000000000000000000000000000000000000000000000000000000000000",
          "blockHash": "0xe9a52b566497e69b2f57736610696b67dfb82bd745a842ca65167b455e2c2f44",
          "blockNumber": "0x82e568",
          "blockTimestamp": "0x685332fc",
          "transactionHash": "0x4b26ac07da6a9c46e1b528425f24973ad623790230105cfb0af79cd98b84bc14",
          "transactionIndex": "0x76",
          "logIndex": "0x83",
          "removed": false
        }
      ],
      "logsBloom": "0x0000000000000000000000c000000000000000000001000000000000000000000000000000004000000000000000000000000000000000000000000000000000000000000000000000000008000000000000800000000000000000000000000200000000000000000000000000010000000000000100000000000010000400000000000000000000000000000000000000000020004000000000000000000000000000000000000000000000000000000000000000000040000000000000000000000002000000000000000000000000000000000000040002000100000000000000000000000000200000000000000000000000000000000200000000000040",
      "type": "0x2",
      "transactionHash": "0x4b26ac07da6a9c46e1b528425f24973ad623790230105cfb0af79cd98b84bc14",
      "transactionIndex": "0x76",
      "blockHash": "0xe9a52b566497e69b2f57736610696b67dfb82bd745a842ca65167b455e2c2f44",
      "blockNumber": "0x82e568",
      "gasUsed": "0x2374c",
      "effectiveGasPrice": "0x61aae",
      "from": "0x9201e30965893bcc19367869734c42e9885751dd",
      "to": "0xfc693f60fe0781ccb0fe07f681381b78a022986a",
      "contractAddress": null
    }
  ],
  "libraries": [],
  "pending": [],
  "returns": {},
  "timestamp": 1750283006,
  "chain": 11155111,
  "commit": "72bc268"
}