{
  "transactions": [
    {
      "hash": "0x942e5e696ae4b5025ba5dd22db5383653b0be790d0eea9d7f604f070f017e927",
      "transactionType": "CALL",
      "contractName": null,
      "contractAddress": "0x427a32e47cd5eba1ff0f2e9d50d76da53bd8ad92",
      "function": "approve(address,uint256)",
      "arguments": [
        "0xFC693f60FE0781CCB0Fe07f681381B78a022986a",
        "1000000000000000000"
      ],
      "transaction": {
        "from": "0x1c3216d6b999f7f5d87b317d1797ab9beeaea4ef",
        "to": "0x427a32e47cd5eba1ff0f2e9d50d76da53bd8ad92",
        "gas": "0x10c3c",
        "value": "0x0",
        "input": "0x095ea7b3000000000000000000000000fc693f60fe0781ccb0fe07f681381b78a022986a0000000000000000000000000000000000000000000000000de0b6b3a7640000",
        "nonce": "0xad",
        "chainId": "0xaa36a7"
      },
      "additionalContracts": [],
      "isFixedGasLimit": false
    },
    {
      "hash": "0xc85e0088d02c3dd6d90775f44d617203d7218a3af8b464c4daf301acafb14774",
      "transactionType": "CALL",
      "contractName": null,
      "contractAddress": "0xfc693f60fe0781ccb0fe07f681381b78a022986a",
      "function": "enterWithBone()",
      "arguments": [],
      "transaction": {
        "from": "0x1c3216d6b999f7f5d87b317d1797ab9beeaea4ef",
        "to": "0xfc693f60fe0781ccb0fe07f681381b78a022986a",
        "gas": "0x473ba",
        "value": "0x0",
        "input": "0x4d7614b1",
        "nonce": "0xae",
        "chainId": "0xaa36a7"
      },
      "additionalContracts": [],
      "isFixedGasLimit": false
    }
  ],
  "receipts": [
    {
      "status": "0x1",
      "cumulativeGasUsed": "0x799e2d",
      "logs": [
        {
          "address": "0x427a32e47cd5eba1ff0f2e9d50d76da53bd8ad92",
          "topics": [
            "0x8c5be1e5ebec7d5bd14f71427d1e84f3dd0314c0f7b2291e5b200ac8c7c3b925",
            "0x0000000000000000000000001c3216d6b999f7f5d87b317d1797ab9beeaea4ef",
            "0x000000000000000000000000fc693f60fe0781ccb0fe07f681381b78a022986a"
          ],
          "data": "0x0000000000000000000000000000000000000000000000000de0b6b3a7640000",
          "blockHash": "0xf034bae051ced771254c521cb2adc58dd832f6997ef44aced8cbae776abdea22",
          "blockNumber": "0x82e502",
          "blockTimestamp": "0x68532e34",
          "transactionHash": "0x942e5e696ae4b5025ba5dd22db5383653b0be790d0eea9d7f604f070f017e927",
          "transactionIndex": "0x61",
          "logIndex": "0x63",
          "removed": false
        }
      ],
      "logsBloom": "0x00000000000000000000000000000000000000000001000000000100000000000000000000000000000000000000000000000000000000000000000000200000000000000000000000000000000000000000000000000000000000000000000000000000000080000000000000000000000000000100000000000000000400000000000000000000000000000000000000000000000000000000000000000000020000000000000000000000000000000000000000000040000000000000000000000000000000000000000000000000000000000000000000000000000000000010000400000000000000000000000000000000000000000200000000000040",
      "type": "0x2",
      "transactionHash": "0x942e5e696ae4b5025ba5dd22db5383653b0be790d0eea9d7f604f070f017e927",
      "transactionIndex": "0x61",
      "blockHash": "0xf034bae051ced771254c521cb2adc58dd832f6997ef44aced8cbae776abdea22",
      "blockNumber": "0x82e502",
      "gasUsed": "0xb769",
      "effectiveGasPrice": "0x12ad1c",
      "from": "0x1c3216d6b999f7f5d87b317d1797ab9beeaea4ef",
      "to": "0x427a32e47cd5eba1ff0f2e9d50d76da53bd8ad92",
      "contractAddress": null
    },
    {
      "status": "0x1",
      "cumulativeGasUsed": "0x7cd752",
      "logs": [
        {
          "address": "0x427a32e47cd5eba1ff0f2e9d50d76da53bd8ad92",
          "topics": [
            "0xddf252ad1be2c89b69c2b068fc378daa952ba7f163c4a11628f55a4df523b3ef",
            "0x0000000000000000000000001c3216d6b999f7f5d87b317d1797ab9beeaea4ef",
            "0x000000000000000000000000fc693f60fe0781ccb0fe07f681381b78a022986a"
          ],
          "data": "0x0000000000000000000000000000000000000000000000000de0b6b3a7640000",
          "blockHash": "0xf034bae051ced771254c521cb2adc58dd832f6997ef44aced8cbae776abdea22",
          "blockNumber": "0x82e502",
          "blockTimestamp": "0x68532e34",
          "transactionHash": "0xc85e0088d02c3dd6d90775f44d617203d7218a3af8b464c4daf301acafb14774",
          "transactionIndex": "0x62",
          "logIndex": "0x64",
          "removed": false
        },
        {
          "address": "0xfc693f60fe0781ccb0fe07f681381b78a022986a",
          "topics": [
            "0xc3a308e4ceecf4d6bf4127818c3a3b603df62ea2678d13b1ae7fb9d0206243d5",
            "0x0000000000000000000000001c3216d6b999f7f5d87b317d1797ab9beeaea4ef",
            "0x000000000000000000000000000000000000000000000000de41ba4fc9d91ad9"
          ],
          "data": "0x0000000000000000000000000000000000000000000000000000000000000000",
          "blockHash": "0xf034bae051ced771254c521cb2adc58dd832f6997ef44aced8cbae776abdea22",
          "blockNumber": "0x82e502",
          "blockTimestamp": "0x68532e34",
          "transactionHash": "0xc85e0088d02c3dd6d90775f44d617203d7218a3af8b464c4daf301acafb14774",
          "transactionIndex": "0x62",
          "logIndex": "0x65",
          "removed": false
        }
      ],
      "logsBloom": "0x0000000000000000000000c000000000000000000001000000000100000000000000000000004000000000000000000000000000000000000000000000000000000000000000000000000008000000000000000000000000000000000000000200000000000080000000000000010000000000000100000000000010000400000000000000000000000000000000000000000020000000000000000000000000000000000000000000000000000000000000000000000040000000000000000000000002000000000000000000000000000000000000040002000100000000000000000400000000000000000000000000000000000000000200000000000040",
      "type": "0x2",
      "transactionHash": "0xc85e0088d02c3dd6d90775f44d617203d7218a3af8b464c4daf301acafb14774",
      "transactionIndex": "0x62",
      "blockHash": "0xf034bae051ced771254c521cb2adc58dd832f6997ef44aced8cbae776abdea22",
      "blockNumber": "0x82e502",
      "gasUsed": "0x33925",
      "effectiveGasPrice": "0x12ad1c",
      "from": "0x1c3216d6b999f7f5d87b317d1797ab9beeaea4ef",
      "to": "0xfc693f60fe0781ccb0fe07f681381b78a022986a",
      "contractAddress": null
    }
  ],
  "libraries": [],
  "pending": [],
  "returns": {},
  "timestamp": 1750281781,
  "chain": 11155111,
  "commit": "72bc268"
}